{
  "_format": "hh-sol-artifact-1",
  "contractName": "MyEpicNFT",
  "sourceName": "contracts/MyEpicNFT.sol",
  "abi": [
    {
      "inputs": [],
      "stateMutability": "nonpayable",
      "type": "constructor"
    },
    {
      "anonymous": false,
      "inputs": [
        {
          "indexed": true,
          "internalType": "address",
          "name": "owner",
          "type": "address"
        },
        {
          "indexed": true,
          "internalType": "address",
          "name": "approved",
          "type": "address"
        },
        {
          "indexed": true,
          "internalType": "uint256",
          "name": "tokenId",
          "type": "uint256"
        }
      ],
      "name": "Approval",
      "type": "event"
    },
    {
      "anonymous": false,
      "inputs": [
        {
          "indexed": true,
          "internalType": "address",
          "name": "owner",
          "type": "address"
        },
        {
          "indexed": true,
          "internalType": "address",
          "name": "operator",
          "type": "address"
        },
        {
          "indexed": false,
          "internalType": "bool",
          "name": "approved",
          "type": "bool"
        }
      ],
      "name": "ApprovalForAll",
      "type": "event"
    },
    {
      "anonymous": false,
      "inputs": [
        {
          "indexed": false,
          "internalType": "address",
          "name": "sender",
          "type": "address"
        },
        {
          "indexed": false,
          "internalType": "uint256",
          "name": "tokenId",
          "type": "uint256"
        }
      ],
      "name": "NewEpicNFTMinted",
      "type": "event"
    },
    {
      "anonymous": false,
      "inputs": [
        {
          "indexed": true,
          "internalType": "address",
          "name": "from",
          "type": "address"
        },
        {
          "indexed": true,
          "internalType": "address",
          "name": "to",
          "type": "address"
        },
        {
          "indexed": true,
          "internalType": "uint256",
          "name": "tokenId",
          "type": "uint256"
        }
      ],
      "name": "Transfer",
      "type": "event"
    },
    {
      "inputs": [
        {
          "internalType": "address",
          "name": "to",
          "type": "address"
        },
        {
          "internalType": "uint256",
          "name": "tokenId",
          "type": "uint256"
        }
      ],
      "name": "approve",
      "outputs": [],
      "stateMutability": "nonpayable",
      "type": "function"
    },
    {
      "inputs": [
        {
          "internalType": "address",
          "name": "owner",
          "type": "address"
        }
      ],
      "name": "balanceOf",
      "outputs": [
        {
          "internalType": "uint256",
          "name": "",
          "type": "uint256"
        }
      ],
      "stateMutability": "view",
      "type": "function"
    },
    {
      "inputs": [
        {
          "internalType": "uint256",
          "name": "tokenId",
          "type": "uint256"
        }
      ],
      "name": "getApproved",
      "outputs": [
        {
          "internalType": "address",
          "name": "",
          "type": "address"
        }
      ],
      "stateMutability": "view",
      "type": "function"
    },
    {
      "inputs": [
        {
          "internalType": "address",
          "name": "owner",
          "type": "address"
        },
        {
          "internalType": "address",
          "name": "operator",
          "type": "address"
        }
      ],
      "name": "isApprovedForAll",
      "outputs": [
        {
          "internalType": "bool",
          "name": "",
          "type": "bool"
        }
      ],
      "stateMutability": "view",
      "type": "function"
    },
    {
      "inputs": [],
      "name": "makeAnEpicNFT",
      "outputs": [],
      "stateMutability": "nonpayable",
      "type": "function"
    },
    {
      "inputs": [],
      "name": "name",
      "outputs": [
        {
          "internalType": "string",
          "name": "",
          "type": "string"
        }
      ],
      "stateMutability": "view",
      "type": "function"
    },
    {
      "inputs": [
        {
          "internalType": "uint256",
          "name": "tokenId",
          "type": "uint256"
        }
      ],
      "name": "ownerOf",
      "outputs": [
        {
          "internalType": "address",
          "name": "",
          "type": "address"
        }
      ],
      "stateMutability": "view",
      "type": "function"
    },
    {
      "inputs": [
        {
          "internalType": "uint256",
          "name": "tokenId",
          "type": "uint256"
        }
      ],
      "name": "pickRandomFirstWord",
      "outputs": [
        {
          "internalType": "string",
          "name": "",
          "type": "string"
        }
      ],
      "stateMutability": "view",
      "type": "function"
    },
    {
      "inputs": [
        {
          "internalType": "uint256",
          "name": "tokenId",
          "type": "uint256"
        }
      ],
      "name": "pickRandomSecondWord",
      "outputs": [
        {
          "internalType": "string",
          "name": "",
          "type": "string"
        }
      ],
      "stateMutability": "view",
      "type": "function"
    },
    {
      "inputs": [
        {
          "internalType": "uint256",
          "name": "tokenId",
          "type": "uint256"
        }
      ],
      "name": "pickRandomThirdWord",
      "outputs": [
        {
          "internalType": "string",
          "name": "",
          "type": "string"
        }
      ],
      "stateMutability": "view",
      "type": "function"
    },
    {
      "inputs": [
        {
          "internalType": "address",
          "name": "from",
          "type": "address"
        },
        {
          "internalType": "address",
          "name": "to",
          "type": "address"
        },
        {
          "internalType": "uint256",
          "name": "tokenId",
          "type": "uint256"
        }
      ],
      "name": "safeTransferFrom",
      "outputs": [],
      "stateMutability": "nonpayable",
      "type": "function"
    },
    {
      "inputs": [
        {
          "internalType": "address",
          "name": "from",
          "type": "address"
        },
        {
          "internalType": "address",
          "name": "to",
          "type": "address"
        },
        {
          "internalType": "uint256",
          "name": "tokenId",
          "type": "uint256"
        },
        {
          "internalType": "bytes",
          "name": "data",
          "type": "bytes"
        }
      ],
      "name": "safeTransferFrom",
      "outputs": [],
      "stateMutability": "nonpayable",
      "type": "function"
    },
    {
      "inputs": [
        {
          "internalType": "address",
          "name": "operator",
          "type": "address"
        },
        {
          "internalType": "bool",
          "name": "approved",
          "type": "bool"
        }
      ],
      "name": "setApprovalForAll",
      "outputs": [],
      "stateMutability": "nonpayable",
      "type": "function"
    },
    {
      "inputs": [
        {
          "internalType": "bytes4",
          "name": "interfaceId",
          "type": "bytes4"
        }
      ],
      "name": "supportsInterface",
      "outputs": [
        {
          "internalType": "bool",
          "name": "",
          "type": "bool"
        }
      ],
      "stateMutability": "view",
      "type": "function"
    },
    {
      "inputs": [],
      "name": "symbol",
      "outputs": [
        {
          "internalType": "string",
          "name": "",
          "type": "string"
        }
      ],
      "stateMutability": "view",
      "type": "function"
    },
    {
      "inputs": [
        {
          "internalType": "uint256",
          "name": "tokenId",
          "type": "uint256"
        }
      ],
      "name": "tokenURI",
      "outputs": [
        {
          "internalType": "string",
          "name": "",
          "type": "string"
        }
      ],
      "stateMutability": "view",
      "type": "function"
    },
    {
      "inputs": [
        {
          "internalType": "address",
          "name": "from",
          "type": "address"
        },
        {
          "internalType": "address",
          "name": "to",
          "type": "address"
        },
        {
          "internalType": "uint256",
          "name": "tokenId",
          "type": "uint256"
        }
      ],
      "name": "transferFrom",
      "outputs": [],
      "stateMutability": "nonpayable",
      "type": "function"
    }
  ],
  "bytecode": "0x608060405260405180610160016040528061012f815260200162004ae861012f91396008908162000031919062000c97565b506040518061014001604052806040518060400160405280600381526020017f426967000000000000000000000000000000000000000000000000000000000081525081526020016040518060400160405280600581526020017f536d616c6c00000000000000000000000000000000000000000000000000000081525081526020016040518060400160405280600481526020017f486967680000000000000000000000000000000000000000000000000000000081525081526020016040518060400160405280600381526020017f4c6f77000000000000000000000000000000000000000000000000000000000081525081526020016040518060400160405280600481526020017f576964650000000000000000000000000000000000000000000000000000000081525081526020016040518060400160405280600681526020017f4e6172726f77000000000000000000000000000000000000000000000000000081525081526020016040518060400160405280600581526020017f4769616e7400000000000000000000000000000000000000000000000000000081525081526020016040518060400160405280600481526020017f54696e790000000000000000000000000000000000000000000000000000000081525081526020016040518060400160405280600481526020017f466173740000000000000000000000000000000000000000000000000000000081525081526020016040518060400160405280600481526020017f536c6f7700000000000000000000000000000000000000000000000000000000815250815250600990600a6200029c92919062000930565b506040518061014001604052806040518060400160405280600381526020017f526564000000000000000000000000000000000000000000000000000000000081525081526020016040518060400160405280600581526020017f576869746500000000000000000000000000000000000000000000000000000081525081526020016040518060400160405280600681526020017f59656c6c6f77000000000000000000000000000000000000000000000000000081525081526020016040518060400160405280600581526020017f477265656e00000000000000000000000000000000000000000000000000000081525081526020016040518060400160405280600581526020017f426c61636b00000000000000000000000000000000000000000000000000000081525081526020016040518060400160405280600481526020017f426c75650000000000000000000000000000000000000000000000000000000081525081526020016040518060400160405280600b81526020017f5472616e73706172656e7400000000000000000000000000000000000000000081525081526020016040518060400160405280600681526020017f56696f6c6574000000000000000000000000000000000000000000000000000081525081526020016040518060400160405280600681526020017f4f72616e6765000000000000000000000000000000000000000000000000000081525081526020016040518060400160405280600681526020017f507572706c650000000000000000000000000000000000000000000000000000815250815250600a90600a6200050792919062000930565b506040518061014001604052806040518060400160405280600381526020017f426f79000000000000000000000000000000000000000000000000000000000081525081526020016040518060400160405280600481526020017f4769726c0000000000000000000000000000000000000000000000000000000081525081526020016040518060400160405280600381526020017f446f67000000000000000000000000000000000000000000000000000000000081525081526020016040518060400160405280600381526020017f436174000000000000000000000000000000000000000000000000000000000081525081526020016040518060400160405280600381526020017f506967000000000000000000000000000000000000000000000000000000000081525081526020016040518060400160405280600681526020017f466c6f776572000000000000000000000000000000000000000000000000000081525081526020016040518060400160405280600581526020017f576f6f647300000000000000000000000000000000000000000000000000000081525081526020016040518060400160405280600581526020017f436c6f756400000000000000000000000000000000000000000000000000000081525081526020016040518060400160405280600581526020017f4f7365616e00000000000000000000000000000000000000000000000000000081525081526020016040518060400160405280600881526020017f4d6f6e7461696e73000000000000000000000000000000000000000000000000815250815250600b90600a6200077292919062000930565b503480156200078057600080fd5b506040518060400160405280600781526020017f6e6162654e4654000000000000000000000000000000000000000000000000008152506040518060400160405280600481526020017f6e616265000000000000000000000000000000000000000000000000000000008152508160009081620007fe919062000c97565b50806001908162000810919062000c97565b5050506200085e6040518060400160405280601881526020017f54686973206973206d79204e465420636f6e74726163742e00000000000000008152506200086460201b620011321760201c565b62000e31565b62000904816040516024016200087b919062000e0d565b6040516020818303038152906040527f41304fac000000000000000000000000000000000000000000000000000000007bffffffffffffffffffffffffffffffffffffffffffffffffffffffff19166020820180517bffffffffffffffffffffffffffffffffffffffffffffffffffffffff83818316178352505050506200090760201b60201c565b50565b60008151905060006a636f6e736f6c652e6c6f679050602083016000808483855afa5050505050565b8280548282559060005260206000209081019282156200097d579160200282015b828111156200097c5782518290816200096b919062000c97565b509160200191906001019062000951565b5b5090506200098c919062000990565b5090565b5b80821115620009b45760008181620009aa9190620009b8565b5060010162000991565b5090565b508054620009c69062000a86565b6000825580601f10620009da5750620009fb565b601f016020900490600052602060002090810190620009fa9190620009fe565b5b50565b5b8082111562000a19576000816000905550600101620009ff565b5090565b600081519050919050565b7f4e487b7100000000000000000000000000000000000000000000000000000000600052604160045260246000fd5b7f4e487b7100000000000000000000000000000000000000000000000000000000600052602260045260246000fd5b6000600282049050600182168062000a9f57607f821691505b60208210810362000ab55762000ab462000a57565b5b50919050565b60008190508160005260206000209050919050565b60006020601f8301049050919050565b600082821b905092915050565b60006008830262000b1f7fffffffffffffffffffffffffffffffffffffffffffffffffffffffffffffffff8262000ae0565b62000b2b868362000ae0565b95508019841693508086168417925050509392505050565b6000819050919050565b6000819050919050565b600062000b7862000b7262000b6c8462000b43565b62000b4d565b62000b43565b9050919050565b6000819050919050565b62000b948362000b57565b62000bac62000ba38262000b7f565b84845462000aed565b825550505050565b600090565b62000bc362000bb4565b62000bd081848462000b89565b505050565b5b8181101562000bf85762000bec60008262000bb9565b60018101905062000bd6565b5050565b601f82111562000c475762000c118162000abb565b62000c1c8462000ad0565b8101602085101562000c2c578190505b62000c4462000c3b8562000ad0565b83018262000bd5565b50505b505050565b600082821c905092915050565b600062000c6c6000198460080262000c4c565b1980831691505092915050565b600062000c87838362000c59565b9150826002028217905092915050565b62000ca28262000a1d565b67ffffffffffffffff81111562000cbe5762000cbd62000a28565b5b62000cca825462000a86565b62000cd782828562000bfc565b600060209050601f83116001811462000d0f576000841562000cfa578287015190505b62000d06858262000c79565b86555062000d76565b601f19841662000d1f8662000abb565b60005b8281101562000d495784890151825560018201915060208501945060208101905062000d22565b8683101562000d69578489015162000d65601f89168262000c59565b8355505b6001600288020188555050505b505050505050565b600082825260208201905092915050565b60005b8381101562000daf57808201518184015260208101905062000d92565b60008484015250505050565b6000601f19601f8301169050919050565b600062000dd98262000a1d565b62000de5818562000d7e565b935062000df781856020860162000d8f565b62000e028162000dbb565b840191505092915050565b6000602082019050818103600083015262000e29818462000dcc565b905092915050565b613ca78062000e416000396000f3fe608060405234801561001057600080fd5b506004361061010b5760003560e01c806370a08231116100a2578063b88d4fde11610071578063b88d4fde146102dc578063c575757a146102f8578063c87b56dd14610328578063de9d132f14610358578063e985e9c5146103625761010b565b806370a082311461024257806395d89b4114610272578063a22cb46514610290578063b187301f146102ac5761010b565b806323b872dd116100de57806323b872dd146101aa5780632de38d68146101c657806342842e0e146101f65780636352211e146102125761010b565b806301ffc9a71461011057806306fdde0314610140578063081812fc1461015e578063095ea7b31461018e575b600080fd5b61012a6004803603810190610125919061254c565b610392565b6040516101379190612594565b60405180910390f35b610148610474565b604051610155919061263f565b60405180910390f35b61017860048036038101906101739190612697565b610506565b6040516101859190612705565b60405180910390f35b6101a860048036038101906101a3919061274c565b61054c565b005b6101c460048036038101906101bf919061278c565b610663565b005b6101e060048036038101906101db9190612697565b6106c3565b6040516101ed919061263f565b60405180910390f35b610210600480360381019061020b919061278c565b61081c565b005b61022c60048036038101906102279190612697565b61083c565b6040516102399190612705565b60405180910390f35b61025c600480360381019061025791906127df565b6108c2565b604051610269919061281b565b60405180910390f35b61027a610979565b604051610287919061263f565b60405180910390f35b6102aa60048036038101906102a59190612862565b610a0b565b005b6102c660048036038101906102c19190612697565b610a21565b6040516102d3919061263f565b60405180910390f35b6102f660048036038101906102f191906129d7565b610b19565b005b610312600480360381019061030d9190612697565b610b7b565b60405161031f919061263f565b60405180910390f35b610342600480360381019061033d9190612697565b610c73565b60405161034f919061263f565b60405180910390f35b610360610d85565b005b61037c60048036038101906103779190612a5a565b61109e565b6040516103899190612594565b60405180910390f35b60007f80ac58cd000000000000000000000000000000000000000000000000000000007bffffffffffffffffffffffffffffffffffffffffffffffffffffffff1916827bffffffffffffffffffffffffffffffffffffffffffffffffffffffff1916148061045d57507f5b5e139f000000000000000000000000000000000000000000000000000000007bffffffffffffffffffffffffffffffffffffffffffffffffffffffff1916827bffffffffffffffffffffffffffffffffffffffffffffffffffffffff1916145b8061046d575061046c826111cb565b5b9050919050565b60606000805461048390612ac9565b80601f01602080910402602001604051908101604052809291908181526020018280546104af90612ac9565b80156104fc5780601f106104d1576101008083540402835291602001916104fc565b820191906000526020600020905b8154815290600101906020018083116104df57829003601f168201915b5050505050905090565b600061051182611235565b6004600083815260200190815260200160002060009054906101000a900473ffffffffffffffffffffffffffffffffffffffff169050919050565b60006105578261083c565b90508073ffffffffffffffffffffffffffffffffffffffff168373ffffffffffffffffffffffffffffffffffffffff16036105c7576040517f08c379a00000000000000000000000000000000000000000000000000000000081526004016105be90612b6c565b60405180910390fd5b8073ffffffffffffffffffffffffffffffffffffffff166105e6611280565b73ffffffffffffffffffffffffffffffffffffffff16148061061557506106148161060f611280565b61109e565b5b610654576040517f08c379a000000000000000000000000000000000000000000000000000000000815260040161064b90612bfe565b60405180910390fd5b61065e8383611288565b505050565b61067461066e611280565b82611341565b6106b3576040517f08c379a00000000000000000000000000000000000000000000000000000000081526004016106aa90612c90565b60405180910390fd5b6106be8383836113d6565b505050565b606060006106f76106d3846116cf565b6040516020016106e39190612d38565b60405160208183030381529060405261179d565b90506107386040518060400160405280600b81526020017f736565642072616e643a20000000000000000000000000000000000000000000815250826117d0565b600980549050816107499190612d89565b905061076d604051806060016040528060238152602001613bea60239139826117d0565b6009818154811061078157610780612dba565b5b90600052602060002001805461079690612ac9565b80601f01602080910402602001604051908101604052809291908181526020018280546107c290612ac9565b801561080f5780601f106107e45761010080835404028352916020019161080f565b820191906000526020600020905b8154815290600101906020018083116107f257829003601f168201915b5050505050915050919050565b61083783838360405180602001604052806000815250610b19565b505050565b6000806108488361186c565b9050600073ffffffffffffffffffffffffffffffffffffffff168173ffffffffffffffffffffffffffffffffffffffff16036108b9576040517f08c379a00000000000000000000000000000000000000000000000000000000081526004016108b090612e35565b60405180910390fd5b80915050919050565b60008073ffffffffffffffffffffffffffffffffffffffff168273ffffffffffffffffffffffffffffffffffffffff1603610932576040517f08c379a000000000000000000000000000000000000000000000000000000000815260040161092990612ec7565b60405180910390fd5b600360008373ffffffffffffffffffffffffffffffffffffffff1673ffffffffffffffffffffffffffffffffffffffff168152602001908152602001600020549050919050565b60606001805461098890612ac9565b80601f01602080910402602001604051908101604052809291908181526020018280546109b490612ac9565b8015610a015780601f106109d657610100808354040283529160200191610a01565b820191906000526020600020905b8154815290600101906020018083116109e457829003601f168201915b5050505050905090565b610a1d610a16611280565b83836118a9565b5050565b60606000610a55610a31846116cf565b604051602001610a419190612f33565b60405160208183030381529060405261179d565b9050600a8054905081610a689190612d89565b9050600a8181548110610a7e57610a7d612dba565b5b906000526020600020018054610a9390612ac9565b80601f0160208091040260200160405190810160405280929190818152602001828054610abf90612ac9565b8015610b0c5780601f10610ae157610100808354040283529160200191610b0c565b820191906000526020600020905b815481529060010190602001808311610aef57829003601f168201915b5050505050915050919050565b610b2a610b24611280565b83611341565b610b69576040517f08c379a0000000000000000000000000000000000000000000000000000000008152600401610b6090612c90565b60405180910390fd5b610b7584848484611a15565b50505050565b60606000610baf610b8b846116cf565b604051602001610b9b9190612fa1565b60405160208183030381529060405261179d565b9050600b8054905081610bc29190612d89565b9050600b8181548110610bd857610bd7612dba565b5b906000526020600020018054610bed90612ac9565b80601f0160208091040260200160405190810160405280929190818152602001828054610c1990612ac9565b8015610c665780601f10610c3b57610100808354040283529160200191610c66565b820191906000526020600020905b815481529060010190602001808311610c4957829003601f168201915b5050505050915050919050565b6060610c7e82611235565b6000600660008481526020019081526020016000208054610c9e90612ac9565b80601f0160208091040260200160405190810160405280929190818152602001828054610cca90612ac9565b8015610d175780601f10610cec57610100808354040283529160200191610d17565b820191906000526020600020905b815481529060010190602001808311610cfa57829003601f168201915b505050505090506000610d28611a71565b90506000815103610d3d578192505050610d80565b600082511115610d72578082604051602001610d5a929190612fc3565b60405160208183030381529060405292505050610d80565b610d7b84611a88565b925050505b919050565b6000610d916007611af0565b9050610dd16040518060400160405280601681526020017f2a2a2a2a2a2a2a2a2a2a2a2a2a2a2a2a2a2a2a2a2a2a00000000000000000000815250611132565b610e106040518060400160405280600b81526020017f6e65774974656d49643a20000000000000000000000000000000000000000000815250826117d0565b60058110610e1e575061109c565b610e3f604051806060016040528060258152602001613c4d60259139611132565b6000610e4a826106c3565b90506000610e5783610a21565b90506000610e6484610b7b565b90506000838383604051602001610e7d93929190612fe7565b60405160208183030381529060405290506000600882604051602001610ea49291906130fc565b6040516020818303038152906040529050610ef36040518060400160405280601881526020017f0a2d2d2d2d2d2d205356472064617461202d2d2d2d2d2d2d0000000000000000815250611132565b610efc81611132565b610f3a6040518060400160405280601881526020017f2d2d2d2d2d2d2d2d2d2d2d2d2d2d2d2d2d2d2d2d2d2d2d0a0000000000000000815250611132565b6000610f6e83610f4984611afe565b604051602001610f5a929190613281565b604051602081830303815290604052611afe565b9050600081604051602001610f839190613312565b6040516020818303038152906040529050610fd26040518060400160405280601681526020017f0a2d2d2d2d2d20546f6b656e20555249202d2d2d2d2d00000000000000000000815250611132565b610fdb81611132565b6110196040518060400160405280601681526020017f2d2d2d2d2d2d2d2d2d2d2d2d2d2d2d2d2d2d2d2d2d0a00000000000000000000815250611132565b6110233389611c95565b61102d8882611cb3565b611050604051806060016040528060258152602001613bc5602591398933611d20565b61105a6007611dbf565b7febb98688741ffa4c7589bf325de30cf7becb63de567842e1ccdb6cb949fdc82c338960405161108b929190613334565b60405180910390a150505050505050505b565b6000600560008473ffffffffffffffffffffffffffffffffffffffff1673ffffffffffffffffffffffffffffffffffffffff16815260200190815260200160002060008373ffffffffffffffffffffffffffffffffffffffff1673ffffffffffffffffffffffffffffffffffffffff16815260200190815260200160002060009054906101000a900460ff16905092915050565b6111c881604051602401611146919061263f565b6040516020818303038152906040527f41304fac000000000000000000000000000000000000000000000000000000007bffffffffffffffffffffffffffffffffffffffffffffffffffffffff19166020820180517bffffffffffffffffffffffffffffffffffffffffffffffffffffffff8381831617835250505050611dd5565b50565b60007f01ffc9a7000000000000000000000000000000000000000000000000000000007bffffffffffffffffffffffffffffffffffffffffffffffffffffffff1916827bffffffffffffffffffffffffffffffffffffffffffffffffffffffff1916149050919050565b61123e81611dfe565b61127d576040517f08c379a000000000000000000000000000000000000000000000000000000000815260040161127490612e35565b60405180910390fd5b50565b600033905090565b816004600083815260200190815260200160002060006101000a81548173ffffffffffffffffffffffffffffffffffffffff021916908373ffffffffffffffffffffffffffffffffffffffff160217905550808273ffffffffffffffffffffffffffffffffffffffff166112fb8361083c565b73ffffffffffffffffffffffffffffffffffffffff167f8c5be1e5ebec7d5bd14f71427d1e84f3dd0314c0f7b2291e5b200ac8c7c3b92560405160405180910390a45050565b60008061134d8361083c565b90508073ffffffffffffffffffffffffffffffffffffffff168473ffffffffffffffffffffffffffffffffffffffff16148061138f575061138e818561109e565b5b806113cd57508373ffffffffffffffffffffffffffffffffffffffff166113b584610506565b73ffffffffffffffffffffffffffffffffffffffff16145b91505092915050565b8273ffffffffffffffffffffffffffffffffffffffff166113f68261083c565b73ffffffffffffffffffffffffffffffffffffffff161461144c576040517f08c379a0000000000000000000000000000000000000000000000000000000008152600401611443906133cf565b60405180910390fd5b600073ffffffffffffffffffffffffffffffffffffffff168273ffffffffffffffffffffffffffffffffffffffff16036114bb576040517f08c379a00000000000000000000000000000000000000000000000000000000081526004016114b290613461565b60405180910390fd5b6114c88383836001611e3f565b8273ffffffffffffffffffffffffffffffffffffffff166114e88261083c565b73ffffffffffffffffffffffffffffffffffffffff161461153e576040517f08c379a0000000000000000000000000000000000000000000000000000000008152600401611535906133cf565b60405180910390fd5b6004600082815260200190815260200160002060006101000a81549073ffffffffffffffffffffffffffffffffffffffff02191690556001600360008573ffffffffffffffffffffffffffffffffffffffff1673ffffffffffffffffffffffffffffffffffffffff168152602001908152602001600020600082825403925050819055506001600360008473ffffffffffffffffffffffffffffffffffffffff1673ffffffffffffffffffffffffffffffffffffffff16815260200190815260200160002060008282540192505081905550816002600083815260200190815260200160002060006101000a81548173ffffffffffffffffffffffffffffffffffffffff021916908373ffffffffffffffffffffffffffffffffffffffff160217905550808273ffffffffffffffffffffffffffffffffffffffff168473ffffffffffffffffffffffffffffffffffffffff167fddf252ad1be2c89b69c2b068fc378daa952ba7f163c4a11628f55a4df523b3ef60405160405180910390a46116ca8383836001611f65565b505050565b6060600060016116de84611f6b565b01905060008167ffffffffffffffff8111156116fd576116fc6128ac565b5b6040519080825280601f01601f19166020018201604052801561172f5781602001600182028036833780820191505090505b509050600082602001820190505b600115611792578080600190039150507f3031323334353637383961626364656600000000000000000000000000000000600a86061a8153600a858161178657611785612d5a565b5b0494506000850361173d575b819350505050919050565b6000816040516020016117b09190613481565b6040516020818303038152906040528051906020012060001c9050919050565b61186882826040516024016117e6929190613498565b6040516020818303038152906040527fb60e72cc000000000000000000000000000000000000000000000000000000007bffffffffffffffffffffffffffffffffffffffffffffffffffffffff19166020820180517bffffffffffffffffffffffffffffffffffffffffffffffffffffffff8381831617835250505050611dd5565b5050565b60006002600083815260200190815260200160002060009054906101000a900473ffffffffffffffffffffffffffffffffffffffff169050919050565b8173ffffffffffffffffffffffffffffffffffffffff168373ffffffffffffffffffffffffffffffffffffffff1603611917576040517f08c379a000000000000000000000000000000000000000000000000000000000815260040161190e90613514565b60405180910390fd5b80600560008573ffffffffffffffffffffffffffffffffffffffff1673ffffffffffffffffffffffffffffffffffffffff16815260200190815260200160002060008473ffffffffffffffffffffffffffffffffffffffff1673ffffffffffffffffffffffffffffffffffffffff16815260200190815260200160002060006101000a81548160ff0219169083151502179055508173ffffffffffffffffffffffffffffffffffffffff168373ffffffffffffffffffffffffffffffffffffffff167f17307eab39ab6107e8899845ad3d59bd9653f200f220920489ca2b5937696c3183604051611a089190612594565b60405180910390a3505050565b611a208484846113d6565b611a2c848484846120be565b611a6b576040517f08c379a0000000000000000000000000000000000000000000000000000000008152600401611a62906135a6565b60405180910390fd5b50505050565b606060405180602001604052806000815250905090565b6060611a9382611235565b6000611a9d611a71565b90506000815111611abd5760405180602001604052806000815250611ae8565b80611ac7846116cf565b604051602001611ad8929190612fc3565b6040516020818303038152906040525b915050919050565b600081600001549050919050565b606060008251905060008103611b265760405180602001604052806000815250915050611c90565b60006003600283611b3791906135f5565b611b419190613629565b6004611b4d919061365a565b90506000602082611b5e91906135f5565b67ffffffffffffffff811115611b7757611b766128ac565b5b6040519080825280601f01601f191660200182016040528015611ba95781602001600182028036833780820191505090505b5090506000604051806060016040528060408152602001613c0d604091399050600181016020830160005b86811015611c4d5760038101905062ffffff818a015116603f8160121c168401518060081b905060ff603f83600c1c1686015116810190508060081b905060ff603f8360061c1686015116810190508060081b905060ff603f831686015116810190508060e01b90508084526004840193505050611bd4565b506003860660018114611c675760028114611c7757611c82565b613d3d60f01b6002830352611c82565b603d60f81b60018303525b508484525050819450505050505b919050565b611caf828260405180602001604052806000815250612245565b5050565b611cbc82611dfe565b611cfb576040517f08c379a0000000000000000000000000000000000000000000000000000000008152600401611cf29061370e565b60405180910390fd5b80600660008481526020019081526020016000209081611d1b91906138c5565b505050565b611dba838383604051602401611d3893929190613997565b6040516020818303038152906040527f1c7ec448000000000000000000000000000000000000000000000000000000007bffffffffffffffffffffffffffffffffffffffffffffffffffffffff19166020820180517bffffffffffffffffffffffffffffffffffffffffffffffffffffffff8381831617835250505050611dd5565b505050565b6001816000016000828254019250508190555050565b60008151905060006a636f6e736f6c652e6c6f679050602083016000808483855afa5050505050565b60008073ffffffffffffffffffffffffffffffffffffffff16611e208361186c565b73ffffffffffffffffffffffffffffffffffffffff1614159050919050565b6001811115611f5f57600073ffffffffffffffffffffffffffffffffffffffff168473ffffffffffffffffffffffffffffffffffffffff1614611ed35780600360008673ffffffffffffffffffffffffffffffffffffffff1673ffffffffffffffffffffffffffffffffffffffff1681526020019081526020016000206000828254611ecb91906139d5565b925050819055505b600073ffffffffffffffffffffffffffffffffffffffff168373ffffffffffffffffffffffffffffffffffffffff1614611f5e5780600360008573ffffffffffffffffffffffffffffffffffffffff1673ffffffffffffffffffffffffffffffffffffffff1681526020019081526020016000206000828254611f5691906135f5565b925050819055505b5b50505050565b50505050565b600080600090507a184f03e93ff9f4daa797ed6e38ed64bf6a1f0100000000000000008310611fc9577a184f03e93ff9f4daa797ed6e38ed64bf6a1f0100000000000000008381611fbf57611fbe612d5a565b5b0492506040810190505b6d04ee2d6d415b85acef81000000008310612006576d04ee2d6d415b85acef81000000008381611ffc57611ffb612d5a565b5b0492506020810190505b662386f26fc10000831061203557662386f26fc10000838161202b5761202a612d5a565b5b0492506010810190505b6305f5e100831061205e576305f5e100838161205457612053612d5a565b5b0492506008810190505b612710831061208357612710838161207957612078612d5a565b5b0492506004810190505b606483106120a6576064838161209c5761209b612d5a565b5b0492506002810190505b600a83106120b5576001810190505b80915050919050565b60006120df8473ffffffffffffffffffffffffffffffffffffffff166122a0565b15612238578373ffffffffffffffffffffffffffffffffffffffff1663150b7a02612108611280565b8786866040518563ffffffff1660e01b815260040161212a9493929190613a5e565b6020604051808303816000875af192505050801561216657506040513d601f19601f820116820180604052508101906121639190613abf565b60015b6121e8573d8060008114612196576040519150601f19603f3d011682016040523d82523d6000602084013e61219b565b606091505b5060008151036121e0576040517f08c379a00000000000000000000000000000000000000000000000000000000081526004016121d7906135a6565b60405180910390fd5b805181602001fd5b63150b7a0260e01b7bffffffffffffffffffffffffffffffffffffffffffffffffffffffff1916817bffffffffffffffffffffffffffffffffffffffffffffffffffffffff19161491505061223d565b600190505b949350505050565b61224f83836122c3565b61225c60008484846120be565b61229b576040517f08c379a0000000000000000000000000000000000000000000000000000000008152600401612292906135a6565b60405180910390fd5b505050565b6000808273ffffffffffffffffffffffffffffffffffffffff163b119050919050565b600073ffffffffffffffffffffffffffffffffffffffff168273ffffffffffffffffffffffffffffffffffffffff1603612332576040517f08c379a000000000000000000000000000000000000000000000000000000000815260040161232990613b38565b60405180910390fd5b61233b81611dfe565b1561237b576040517f08c379a000000000000000000000000000000000000000000000000000000000815260040161237290613ba4565b60405180910390fd5b612389600083836001611e3f565b61239281611dfe565b156123d2576040517f08c379a00000000000000000000000000000000000000000000000000000000081526004016123c990613ba4565b60405180910390fd5b6001600360008473ffffffffffffffffffffffffffffffffffffffff1673ffffffffffffffffffffffffffffffffffffffff16815260200190815260200160002060008282540192505081905550816002600083815260200190815260200160002060006101000a81548173ffffffffffffffffffffffffffffffffffffffff021916908373ffffffffffffffffffffffffffffffffffffffff160217905550808273ffffffffffffffffffffffffffffffffffffffff16600073ffffffffffffffffffffffffffffffffffffffff167fddf252ad1be2c89b69c2b068fc378daa952ba7f163c4a11628f55a4df523b3ef60405160405180910390a46124dc600083836001611f65565b5050565b6000604051905090565b600080fd5b600080fd5b60007fffffffff0000000000000000000000000000000000000000000000000000000082169050919050565b612529816124f4565b811461253457600080fd5b50565b60008135905061254681612520565b92915050565b600060208284031215612562576125616124ea565b5b600061257084828501612537565b91505092915050565b60008115159050919050565b61258e81612579565b82525050565b60006020820190506125a96000830184612585565b92915050565b600081519050919050565b600082825260208201905092915050565b60005b838110156125e95780820151818401526020810190506125ce565b60008484015250505050565b6000601f19601f8301169050919050565b6000612611826125af565b61261b81856125ba565b935061262b8185602086016125cb565b612634816125f5565b840191505092915050565b600060208201905081810360008301526126598184612606565b905092915050565b6000819050919050565b61267481612661565b811461267f57600080fd5b50565b6000813590506126918161266b565b92915050565b6000602082840312156126ad576126ac6124ea565b5b60006126bb84828501612682565b91505092915050565b600073ffffffffffffffffffffffffffffffffffffffff82169050919050565b60006126ef826126c4565b9050919050565b6126ff816126e4565b82525050565b600060208201905061271a60008301846126f6565b92915050565b612729816126e4565b811461273457600080fd5b50565b60008135905061274681612720565b92915050565b60008060408385031215612763576127626124ea565b5b600061277185828601612737565b925050602061278285828601612682565b9150509250929050565b6000806000606084860312156127a5576127a46124ea565b5b60006127b386828701612737565b93505060206127c486828701612737565b92505060406127d586828701612682565b9150509250925092565b6000602082840312156127f5576127f46124ea565b5b600061280384828501612737565b91505092915050565b61281581612661565b82525050565b6000602082019050612830600083018461280c565b92915050565b61283f81612579565b811461284a57600080fd5b50565b60008135905061285c81612836565b92915050565b60008060408385031215612879576128786124ea565b5b600061288785828601612737565b92505060206128988582860161284d565b9150509250929050565b600080fd5b600080fd5b7f4e487b7100000000000000000000000000000000000000000000000000000000600052604160045260246000fd5b6128e4826125f5565b810181811067ffffffffffffffff82111715612903576129026128ac565b5b80604052505050565b60006129166124e0565b905061292282826128db565b919050565b600067ffffffffffffffff821115612942576129416128ac565b5b61294b826125f5565b9050602081019050919050565b82818337600083830152505050565b600061297a61297584612927565b61290c565b905082815260208101848484011115612996576129956128a7565b5b6129a1848285612958565b509392505050565b600082601f8301126129be576129bd6128a2565b5b81356129ce848260208601612967565b91505092915050565b600080600080608085870312156129f1576129f06124ea565b5b60006129ff87828801612737565b9450506020612a1087828801612737565b9350506040612a2187828801612682565b925050606085013567ffffffffffffffff811115612a4257612a416124ef565b5b612a4e878288016129a9565b91505092959194509250565b60008060408385031215612a7157612a706124ea565b5b6000612a7f85828601612737565b9250506020612a9085828601612737565b9150509250929050565b7f4e487b7100000000000000000000000000000000000000000000000000000000600052602260045260246000fd5b60006002820490506001821680612ae157607f821691505b602082108103612af457612af3612a9a565b5b50919050565b7f4552433732313a20617070726f76616c20746f2063757272656e74206f776e6560008201527f7200000000000000000000000000000000000000000000000000000000000000602082015250565b6000612b566021836125ba565b9150612b6182612afa565b604082019050919050565b60006020820190508181036000830152612b8581612b49565b9050919050565b7f4552433732313a20617070726f76652063616c6c6572206973206e6f7420746f60008201527f6b656e206f776e6572206f7220617070726f76656420666f7220616c6c000000602082015250565b6000612be8603d836125ba565b9150612bf382612b8c565b604082019050919050565b60006020820190508181036000830152612c1781612bdb565b9050919050565b7f4552433732313a2063616c6c6572206973206e6f7420746f6b656e206f776e6560008201527f72206f7220617070726f76656400000000000000000000000000000000000000602082015250565b6000612c7a602d836125ba565b9150612c8582612c1e565b604082019050919050565b60006020820190508181036000830152612ca981612c6d565b9050919050565b600081905092915050565b7f46495253545f574f524400000000000000000000000000000000000000000000600082015250565b6000612cf1600a83612cb0565b9150612cfc82612cbb565b600a82019050919050565b6000612d12826125af565b612d1c8185612cb0565b9350612d2c8185602086016125cb565b80840191505092915050565b6000612d4382612ce4565b9150612d4f8284612d07565b915081905092915050565b7f4e487b7100000000000000000000000000000000000000000000000000000000600052601260045260246000fd5b6000612d9482612661565b9150612d9f83612661565b925082612daf57612dae612d5a565b5b828206905092915050565b7f4e487b7100000000000000000000000000000000000000000000000000000000600052603260045260246000fd5b7f4552433732313a20696e76616c696420746f6b656e2049440000000000000000600082015250565b6000612e1f6018836125ba565b9150612e2a82612de9565b602082019050919050565b60006020820190508181036000830152612e4e81612e12565b9050919050565b7f4552433732313a2061646472657373207a65726f206973206e6f74206120766160008201527f6c6964206f776e65720000000000000000000000000000000000000000000000602082015250565b6000612eb16029836125ba565b9150612ebc82612e55565b604082019050919050565b60006020820190508181036000830152612ee081612ea4565b9050919050565b7f5345434f4e445f574f5244000000000000000000000000000000000000000000600082015250565b6000612f1d600b83612cb0565b9150612f2882612ee7565b600b82019050919050565b6000612f3e82612f10565b9150612f4a8284612d07565b915081905092915050565b7f54484952445f574f524400000000000000000000000000000000000000000000600082015250565b6000612f8b600a83612cb0565b9150612f9682612f55565b600a82019050919050565b6000612fac82612f7e565b9150612fb88284612d07565b915081905092915050565b6000612fcf8285612d07565b9150612fdb8284612d07565b91508190509392505050565b6000612ff38286612d07565b9150612fff8285612d07565b915061300b8284612d07565b9150819050949350505050565b60008190508160005260206000209050919050565b6000815461303a81612ac9565b6130448186612cb0565b9450600182166000811461305f5760018114613074576130a7565b60ff19831686528115158202860193506130a7565b61307d85613018565b60005b8381101561309f57815481890152600182019150602081019050613080565b838801955050505b50505092915050565b7f3c2f746578743e3c2f7376673e00000000000000000000000000000000000000600082015250565b60006130e6600d83612cb0565b91506130f1826130b0565b600d82019050919050565b6000613108828561302d565b91506131148284612d07565b915061311f826130d9565b91508190509392505050565b7f7b226e616d65223a202200000000000000000000000000000000000000000000600082015250565b6000613161600a83612cb0565b915061316c8261312b565b600a82019050919050565b7f222c20226465736372697074696f6e223a20224120686967686c79206163636c60008201527f61696d6564204e465420636f6c6c656374696f6e206f6620737175617265732e60208201527f222c2022696d616765223a2022646174613a696d6167652f7376672b786d6c3b60408201527f6261736536342c00000000000000000000000000000000000000000000000000606082015250565b600061321f606783612cb0565b915061322a82613177565b606782019050919050565b7f227d000000000000000000000000000000000000000000000000000000000000600082015250565b600061326b600283612cb0565b915061327682613235565b600282019050919050565b600061328c82613154565b91506132988285612d07565b91506132a382613212565b91506132af8284612d07565b91506132ba8261325e565b91508190509392505050565b7f646174613a6170706c69636174696f6e2f6a736f6e3b6261736536342c000000600082015250565b60006132fc601d83612cb0565b9150613307826132c6565b601d82019050919050565b600061331d826132ef565b91506133298284612d07565b915081905092915050565b600060408201905061334960008301856126f6565b613356602083018461280c565b9392505050565b7f4552433732313a207472616e736665722066726f6d20696e636f72726563742060008201527f6f776e6572000000000000000000000000000000000000000000000000000000602082015250565b60006133b96025836125ba565b91506133c48261335d565b604082019050919050565b600060208201905081810360008301526133e8816133ac565b9050919050565b7f4552433732313a207472616e7366657220746f20746865207a65726f2061646460008201527f7265737300000000000000000000000000000000000000000000000000000000602082015250565b600061344b6024836125ba565b9150613456826133ef565b604082019050919050565b6000602082019050818103600083015261347a8161343e565b9050919050565b600061348d8284612d07565b915081905092915050565b600060408201905081810360008301526134b28185612606565b90506134c1602083018461280c565b9392505050565b7f4552433732313a20617070726f766520746f2063616c6c657200000000000000600082015250565b60006134fe6019836125ba565b9150613509826134c8565b602082019050919050565b6000602082019050818103600083015261352d816134f1565b9050919050565b7f4552433732313a207472616e7366657220746f206e6f6e20455243373231526560008201527f63656976657220696d706c656d656e7465720000000000000000000000000000602082015250565b60006135906032836125ba565b915061359b82613534565b604082019050919050565b600060208201905081810360008301526135bf81613583565b9050919050565b7f4e487b7100000000000000000000000000000000000000000000000000000000600052601160045260246000fd5b600061360082612661565b915061360b83612661565b9250828201905080821115613623576136226135c6565b5b92915050565b600061363482612661565b915061363f83612661565b92508261364f5761364e612d5a565b5b828204905092915050565b600061366582612661565b915061367083612661565b925082820261367e81612661565b91508282048414831517613695576136946135c6565b5b5092915050565b7f45524337323155524953746f726167653a2055524920736574206f66206e6f6e60008201527f6578697374656e7420746f6b656e000000000000000000000000000000000000602082015250565b60006136f8602e836125ba565b91506137038261369c565b604082019050919050565b60006020820190508181036000830152613727816136eb565b9050919050565b60006020601f8301049050919050565b600082821b905092915050565b60006008830261377b7fffffffffffffffffffffffffffffffffffffffffffffffffffffffffffffffff8261373e565b613785868361373e565b95508019841693508086168417925050509392505050565b6000819050919050565b60006137c26137bd6137b884612661565b61379d565b612661565b9050919050565b6000819050919050565b6137dc836137a7565b6137f06137e8826137c9565b84845461374b565b825550505050565b600090565b6138056137f8565b6138108184846137d3565b505050565b5b81811015613834576138296000826137fd565b600181019050613816565b5050565b601f8211156138795761384a81613018565b6138538461372e565b81016020851015613862578190505b61387661386e8561372e565b830182613815565b50505b505050565b600082821c905092915050565b600061389c6000198460080261387e565b1980831691505092915050565b60006138b5838361388b565b9150826002028217905092915050565b6138ce826125af565b67ffffffffffffffff8111156138e7576138e66128ac565b5b6138f18254612ac9565b6138fc828285613838565b600060209050601f83116001811461392f576000841561391d578287015190505b61392785826138a9565b86555061398f565b601f19841661393d86613018565b60005b8281101561396557848901518255600182019150602085019450602081019050613940565b86831015613982578489015161397e601f89168261388b565b8355505b6001600288020188555050505b505050505050565b600060608201905081810360008301526139b18186612606565b90506139c0602083018561280c565b6139cd60408301846126f6565b949350505050565b60006139e082612661565b91506139eb83612661565b9250828203905081811115613a0357613a026135c6565b5b92915050565b600081519050919050565b600082825260208201905092915050565b6000613a3082613a09565b613a3a8185613a14565b9350613a4a8185602086016125cb565b613a53816125f5565b840191505092915050565b6000608082019050613a7360008301876126f6565b613a8060208301866126f6565b613a8d604083018561280c565b8181036060830152613a9f8184613a25565b905095945050505050565b600081519050613ab981612520565b92915050565b600060208284031215613ad557613ad46124ea565b5b6000613ae384828501613aaa565b91505092915050565b7f4552433732313a206d696e7420746f20746865207a65726f2061646472657373600082015250565b6000613b226020836125ba565b9150613b2d82613aec565b602082019050919050565b60006020820190508181036000830152613b5181613b15565b9050919050565b7f4552433732313a20746f6b656e20616c7265616479206d696e74656400000000600082015250565b6000613b8e601c836125ba565b9150613b9982613b58565b602082019050919050565b60006020820190508181036000830152613bbd81613b81565b905091905056fe416e204e465420772f20494420257320686173206265656e206d696e74656420746f20257372616e646f6d6c792073656c656374656420666972737420776f72643a2072616e643d4142434445464748494a4b4c4d4e4f505152535455565758595a6162636465666768696a6b6c6d6e6f707172737475767778797a303132333435363738392b2f5374696c6c206c6f776572207468616e20616c6c6f776564204d696e74206e756d62657273a26469706673582212200b0f69f3d7328c30e30abdea61f1a0b52e2dbf849d4b343dde1b8481f7edb8e864736f6c634300081100333c73766720786d6c6e733d27687474703a2f2f7777772e77332e6f72672f323030302f73766727207072657365727665417370656374526174696f3d27784d696e594d696e206d656574272076696577426f783d273020302033353020333530273e3c7374796c653e2e62617365207b2066696c6c3a2077686974653b20666f6e742d66616d696c793a2073657269663b20666f6e742d73697a653a20323470783b207d3c2f7374796c653e3c726563742077696474683d273130302527206865696768743d2731303025272066696c6c3d27626c61636b27202f3e3c7465787420783d273530252720793d273530252720636c6173733d27626173652720646f6d696e616e742d626173656c696e653d276d6964646c652720746578742d616e63686f723d276d6964646c65273e",
  "linkReferences": {},
  "deployedLinkReferences": {}
}