{
  "_format": "hh-sol-artifact-1",
  "contractName": "MyEpicNFT",
  "sourceName": "contracts/MyEpicNFT.sol",
  "abi": [
    {
      "inputs": [],
      "stateMutability": "nonpayable",
      "type": "constructor"
    },
    {
      "anonymous": false,
      "inputs": [
        {
          "indexed": true,
          "internalType": "address",
          "name": "owner",
          "type": "address"
        },
        {
          "indexed": true,
          "internalType": "address",
          "name": "approved",
          "type": "address"
        },
        {
          "indexed": true,
          "internalType": "uint256",
          "name": "tokenId",
          "type": "uint256"
        }
      ],
      "name": "Approval",
      "type": "event"
    },
    {
      "anonymous": false,
      "inputs": [
        {
          "indexed": true,
          "internalType": "address",
          "name": "owner",
          "type": "address"
        },
        {
          "indexed": true,
          "internalType": "address",
          "name": "operator",
          "type": "address"
        },
        {
          "indexed": false,
          "internalType": "bool",
          "name": "approved",
          "type": "bool"
        }
      ],
      "name": "ApprovalForAll",
      "type": "event"
    },
    {
      "anonymous": false,
      "inputs": [
        {
          "indexed": false,
          "internalType": "address",
          "name": "sender",
          "type": "address"
        },
        {
          "indexed": false,
          "internalType": "uint256",
          "name": "tokenId",
          "type": "uint256"
        }
      ],
      "name": "NewEpicNFTMinted",
      "type": "event"
    },
    {
      "anonymous": false,
      "inputs": [
        {
          "indexed": true,
          "internalType": "address",
          "name": "from",
          "type": "address"
        },
        {
          "indexed": true,
          "internalType": "address",
          "name": "to",
          "type": "address"
        },
        {
          "indexed": true,
          "internalType": "uint256",
          "name": "tokenId",
          "type": "uint256"
        }
      ],
      "name": "Transfer",
      "type": "event"
    },
    {
      "inputs": [
        {
          "internalType": "address",
          "name": "to",
          "type": "address"
        },
        {
          "internalType": "uint256",
          "name": "tokenId",
          "type": "uint256"
        }
      ],
      "name": "approve",
      "outputs": [],
      "stateMutability": "nonpayable",
      "type": "function"
    },
    {
      "inputs": [
        {
          "internalType": "address",
          "name": "owner",
          "type": "address"
        }
      ],
      "name": "balanceOf",
      "outputs": [
        {
          "internalType": "uint256",
          "name": "",
          "type": "uint256"
        }
      ],
      "stateMutability": "view",
      "type": "function"
    },
    {
      "inputs": [
        {
          "internalType": "uint256",
          "name": "tokenId",
          "type": "uint256"
        }
      ],
      "name": "getApproved",
      "outputs": [
        {
          "internalType": "address",
          "name": "",
          "type": "address"
        }
      ],
      "stateMutability": "view",
      "type": "function"
    },
    {
      "inputs": [],
      "name": "getMintCounter",
      "outputs": [
        {
          "internalType": "uint256",
          "name": "",
          "type": "uint256"
        }
      ],
      "stateMutability": "view",
      "type": "function"
    },
    {
      "inputs": [
        {
          "internalType": "address",
          "name": "owner",
          "type": "address"
        },
        {
          "internalType": "address",
          "name": "operator",
          "type": "address"
        }
      ],
      "name": "isApprovedForAll",
      "outputs": [
        {
          "internalType": "bool",
          "name": "",
          "type": "bool"
        }
      ],
      "stateMutability": "view",
      "type": "function"
    },
    {
      "inputs": [],
      "name": "makeAnEpicNFT",
      "outputs": [],
      "stateMutability": "nonpayable",
      "type": "function"
    },
    {
      "inputs": [],
      "name": "name",
      "outputs": [
        {
          "internalType": "string",
          "name": "",
          "type": "string"
        }
      ],
      "stateMutability": "view",
      "type": "function"
    },
    {
      "inputs": [
        {
          "internalType": "uint256",
          "name": "tokenId",
          "type": "uint256"
        }
      ],
      "name": "ownerOf",
      "outputs": [
        {
          "internalType": "address",
          "name": "",
          "type": "address"
        }
      ],
      "stateMutability": "view",
      "type": "function"
    },
    {
      "inputs": [
        {
          "internalType": "uint256",
          "name": "tokenId",
          "type": "uint256"
        }
      ],
      "name": "pickRandomFirstWord",
      "outputs": [
        {
          "internalType": "string",
          "name": "",
          "type": "string"
        }
      ],
      "stateMutability": "view",
      "type": "function"
    },
    {
      "inputs": [
        {
          "internalType": "uint256",
          "name": "tokenId",
          "type": "uint256"
        }
      ],
      "name": "pickRandomSecondWord",
      "outputs": [
        {
          "internalType": "string",
          "name": "",
          "type": "string"
        }
      ],
      "stateMutability": "view",
      "type": "function"
    },
    {
      "inputs": [
        {
          "internalType": "uint256",
          "name": "tokenId",
          "type": "uint256"
        }
      ],
      "name": "pickRandomThirdWord",
      "outputs": [
        {
          "internalType": "string",
          "name": "",
          "type": "string"
        }
      ],
      "stateMutability": "view",
      "type": "function"
    },
    {
      "inputs": [
        {
          "internalType": "address",
          "name": "from",
          "type": "address"
        },
        {
          "internalType": "address",
          "name": "to",
          "type": "address"
        },
        {
          "internalType": "uint256",
          "name": "tokenId",
          "type": "uint256"
        }
      ],
      "name": "safeTransferFrom",
      "outputs": [],
      "stateMutability": "nonpayable",
      "type": "function"
    },
    {
      "inputs": [
        {
          "internalType": "address",
          "name": "from",
          "type": "address"
        },
        {
          "internalType": "address",
          "name": "to",
          "type": "address"
        },
        {
          "internalType": "uint256",
          "name": "tokenId",
          "type": "uint256"
        },
        {
          "internalType": "bytes",
          "name": "data",
          "type": "bytes"
        }
      ],
      "name": "safeTransferFrom",
      "outputs": [],
      "stateMutability": "nonpayable",
      "type": "function"
    },
    {
      "inputs": [
        {
          "internalType": "address",
          "name": "operator",
          "type": "address"
        },
        {
          "internalType": "bool",
          "name": "approved",
          "type": "bool"
        }
      ],
      "name": "setApprovalForAll",
      "outputs": [],
      "stateMutability": "nonpayable",
      "type": "function"
    },
    {
      "inputs": [
        {
          "internalType": "bytes4",
          "name": "interfaceId",
          "type": "bytes4"
        }
      ],
      "name": "supportsInterface",
      "outputs": [
        {
          "internalType": "bool",
          "name": "",
          "type": "bool"
        }
      ],
      "stateMutability": "view",
      "type": "function"
    },
    {
      "inputs": [],
      "name": "symbol",
      "outputs": [
        {
          "internalType": "string",
          "name": "",
          "type": "string"
        }
      ],
      "stateMutability": "view",
      "type": "function"
    },
    {
      "inputs": [
        {
          "internalType": "uint256",
          "name": "tokenId",
          "type": "uint256"
        }
      ],
      "name": "tokenURI",
      "outputs": [
        {
          "internalType": "string",
          "name": "",
          "type": "string"
        }
      ],
      "stateMutability": "view",
      "type": "function"
    },
    {
      "inputs": [
        {
          "internalType": "address",
          "name": "from",
          "type": "address"
        },
        {
          "internalType": "address",
          "name": "to",
          "type": "address"
        },
        {
          "internalType": "uint256",
          "name": "tokenId",
          "type": "uint256"
        }
      ],
      "name": "transferFrom",
      "outputs": [],
      "stateMutability": "nonpayable",
      "type": "function"
    }
  ],
  "bytecode": "0x608060405260405180610160016040528061012f815260200162004a6061012f91396008908162000031919062000c97565b506040518061014001604052806040518060400160405280600381526020017f426967000000000000000000000000000000000000000000000000000000000081525081526020016040518060400160405280600581526020017f536d616c6c00000000000000000000000000000000000000000000000000000081525081526020016040518060400160405280600481526020017f486967680000000000000000000000000000000000000000000000000000000081525081526020016040518060400160405280600381526020017f4c6f77000000000000000000000000000000000000000000000000000000000081525081526020016040518060400160405280600481526020017f576964650000000000000000000000000000000000000000000000000000000081525081526020016040518060400160405280600681526020017f4e6172726f77000000000000000000000000000000000000000000000000000081525081526020016040518060400160405280600581526020017f4769616e7400000000000000000000000000000000000000000000000000000081525081526020016040518060400160405280600481526020017f54696e790000000000000000000000000000000000000000000000000000000081525081526020016040518060400160405280600481526020017f466173740000000000000000000000000000000000000000000000000000000081525081526020016040518060400160405280600481526020017f536c6f7700000000000000000000000000000000000000000000000000000000815250815250600990600a6200029c92919062000930565b506040518061014001604052806040518060400160405280600381526020017f526564000000000000000000000000000000000000000000000000000000000081525081526020016040518060400160405280600581526020017f576869746500000000000000000000000000000000000000000000000000000081525081526020016040518060400160405280600681526020017f59656c6c6f77000000000000000000000000000000000000000000000000000081525081526020016040518060400160405280600581526020017f477265656e00000000000000000000000000000000000000000000000000000081525081526020016040518060400160405280600581526020017f426c61636b00000000000000000000000000000000000000000000000000000081525081526020016040518060400160405280600481526020017f426c75650000000000000000000000000000000000000000000000000000000081525081526020016040518060400160405280600b81526020017f5472616e73706172656e7400000000000000000000000000000000000000000081525081526020016040518060400160405280600681526020017f56696f6c6574000000000000000000000000000000000000000000000000000081525081526020016040518060400160405280600681526020017f4f72616e6765000000000000000000000000000000000000000000000000000081525081526020016040518060400160405280600681526020017f507572706c650000000000000000000000000000000000000000000000000000815250815250600a90600a6200050792919062000930565b506040518061014001604052806040518060400160405280600381526020017f426f79000000000000000000000000000000000000000000000000000000000081525081526020016040518060400160405280600481526020017f4769726c0000000000000000000000000000000000000000000000000000000081525081526020016040518060400160405280600381526020017f446f67000000000000000000000000000000000000000000000000000000000081525081526020016040518060400160405280600381526020017f436174000000000000000000000000000000000000000000000000000000000081525081526020016040518060400160405280600381526020017f506967000000000000000000000000000000000000000000000000000000000081525081526020016040518060400160405280600681526020017f466c6f776572000000000000000000000000000000000000000000000000000081525081526020016040518060400160405280600581526020017f576f6f647300000000000000000000000000000000000000000000000000000081525081526020016040518060400160405280600581526020017f436c6f756400000000000000000000000000000000000000000000000000000081525081526020016040518060400160405280600581526020017f4f7365616e00000000000000000000000000000000000000000000000000000081525081526020016040518060400160405280600981526020017f4d6f756e7461696e730000000000000000000000000000000000000000000000815250815250600b90600a6200077292919062000930565b503480156200078057600080fd5b506040518060400160405280600781526020017f6e6162654e4654000000000000000000000000000000000000000000000000008152506040518060400160405280600481526020017f6e616265000000000000000000000000000000000000000000000000000000008152508160009081620007fe919062000c97565b50806001908162000810919062000c97565b5050506200085e6040518060400160405280601881526020017f54686973206973206d79204e465420636f6e74726163742e00000000000000008152506200086460201b620010a61760201c565b62000e31565b62000904816040516024016200087b919062000e0d565b6040516020818303038152906040527f41304fac000000000000000000000000000000000000000000000000000000007bffffffffffffffffffffffffffffffffffffffffffffffffffffffff19166020820180517bffffffffffffffffffffffffffffffffffffffffffffffffffffffff83818316178352505050506200090760201b60201c565b50565b60008151905060006a636f6e736f6c652e6c6f679050602083016000808483855afa5050505050565b8280548282559060005260206000209081019282156200097d579160200282015b828111156200097c5782518290816200096b919062000c97565b509160200191906001019062000951565b5b5090506200098c919062000990565b5090565b5b80821115620009b45760008181620009aa9190620009b8565b5060010162000991565b5090565b508054620009c69062000a86565b6000825580601f10620009da5750620009fb565b601f016020900490600052602060002090810190620009fa9190620009fe565b5b50565b5b8082111562000a19576000816000905550600101620009ff565b5090565b600081519050919050565b7f4e487b7100000000000000000000000000000000000000000000000000000000600052604160045260246000fd5b7f4e487b7100000000000000000000000000000000000000000000000000000000600052602260045260246000fd5b6000600282049050600182168062000a9f57607f821691505b60208210810362000ab55762000ab462000a57565b5b50919050565b60008190508160005260206000209050919050565b60006020601f8301049050919050565b600082821b905092915050565b60006008830262000b1f7fffffffffffffffffffffffffffffffffffffffffffffffffffffffffffffffff8262000ae0565b62000b2b868362000ae0565b95508019841693508086168417925050509392505050565b6000819050919050565b6000819050919050565b600062000b7862000b7262000b6c8462000b43565b62000b4d565b62000b43565b9050919050565b6000819050919050565b62000b948362000b57565b62000bac62000ba38262000b7f565b84845462000aed565b825550505050565b600090565b62000bc362000bb4565b62000bd081848462000b89565b505050565b5b8181101562000bf85762000bec60008262000bb9565b60018101905062000bd6565b5050565b601f82111562000c475762000c118162000abb565b62000c1c8462000ad0565b8101602085101562000c2c578190505b62000c4462000c3b8562000ad0565b83018262000bd5565b50505b505050565b600082821c905092915050565b600062000c6c6000198460080262000c4c565b1980831691505092915050565b600062000c87838362000c59565b9150826002028217905092915050565b62000ca28262000a1d565b67ffffffffffffffff81111562000cbe5762000cbd62000a28565b5b62000cca825462000a86565b62000cd782828562000bfc565b600060209050601f83116001811462000d0f576000841562000cfa578287015190505b62000d06858262000c79565b86555062000d76565b601f19841662000d1f8662000abb565b60005b8281101562000d495784890151825560018201915060208501945060208101905062000d22565b8683101562000d69578489015162000d65601f89168262000c59565b8355505b6001600288020188555050505b505050505050565b600082825260208201905092915050565b60005b8381101562000daf57808201518184015260208101905062000d92565b60008484015250505050565b6000601f19601f8301169050919050565b600062000dd98262000a1d565b62000de5818562000d7e565b935062000df781856020860162000d8f565b62000e028162000dbb565b840191505092915050565b6000602082019050818103600083015262000e29818462000dcc565b905092915050565b613c1f8062000e416000396000f3fe608060405234801561001057600080fd5b50600436106101165760003560e01c806395d89b41116100a2578063c575757a11610071578063c575757a14610303578063c87b56dd14610333578063de9d132f14610363578063e357495b1461036d578063e985e9c51461038b57610116565b806395d89b411461027d578063a22cb4651461029b578063b187301f146102b7578063b88d4fde146102e757610116565b806323b872dd116100e957806323b872dd146101b55780632de38d68146101d157806342842e0e146102015780636352211e1461021d57806370a082311461024d57610116565b806301ffc9a71461011b57806306fdde031461014b578063081812fc14610169578063095ea7b314610199575b600080fd5b610135600480360381019061013091906124c0565b6103bb565b6040516101429190612508565b60405180910390f35b61015361049d565b60405161016091906125b3565b60405180910390f35b610183600480360381019061017e919061260b565b61052f565b6040516101909190612679565b60405180910390f35b6101b360048036038101906101ae91906126c0565b610575565b005b6101cf60048036038101906101ca9190612700565b61068c565b005b6101eb60048036038101906101e6919061260b565b6106ec565b6040516101f891906125b3565b60405180910390f35b61021b60048036038101906102169190612700565b610845565b005b6102376004803603810190610232919061260b565b610865565b6040516102449190612679565b60405180910390f35b61026760048036038101906102629190612753565b6108eb565b604051610274919061278f565b60405180910390f35b6102856109a2565b60405161029291906125b3565b60405180910390f35b6102b560048036038101906102b091906127d6565b610a34565b005b6102d160048036038101906102cc919061260b565b610a4a565b6040516102de91906125b3565b60405180910390f35b61030160048036038101906102fc919061294b565b610b42565b005b61031d6004803603810190610318919061260b565b610ba4565b60405161032a91906125b3565b60405180910390f35b61034d6004803603810190610348919061260b565b610c9c565b60405161035a91906125b3565b60405180910390f35b61036b610dae565b005b610375610fbd565b604051610382919061278f565b60405180910390f35b6103a560048036038101906103a091906129ce565b611012565b6040516103b29190612508565b60405180910390f35b60007f80ac58cd000000000000000000000000000000000000000000000000000000007bffffffffffffffffffffffffffffffffffffffffffffffffffffffff1916827bffffffffffffffffffffffffffffffffffffffffffffffffffffffff1916148061048657507f5b5e139f000000000000000000000000000000000000000000000000000000007bffffffffffffffffffffffffffffffffffffffffffffffffffffffff1916827bffffffffffffffffffffffffffffffffffffffffffffffffffffffff1916145b8061049657506104958261113f565b5b9050919050565b6060600080546104ac90612a3d565b80601f01602080910402602001604051908101604052809291908181526020018280546104d890612a3d565b80156105255780601f106104fa57610100808354040283529160200191610525565b820191906000526020600020905b81548152906001019060200180831161050857829003601f168201915b5050505050905090565b600061053a826111a9565b6004600083815260200190815260200160002060009054906101000a900473ffffffffffffffffffffffffffffffffffffffff169050919050565b600061058082610865565b90508073ffffffffffffffffffffffffffffffffffffffff168373ffffffffffffffffffffffffffffffffffffffff16036105f0576040517f08c379a00000000000000000000000000000000000000000000000000000000081526004016105e790612ae0565b60405180910390fd5b8073ffffffffffffffffffffffffffffffffffffffff1661060f6111f4565b73ffffffffffffffffffffffffffffffffffffffff16148061063e575061063d816106386111f4565b611012565b5b61067d576040517f08c379a000000000000000000000000000000000000000000000000000000000815260040161067490612b72565b60405180910390fd5b61068783836111fc565b505050565b61069d6106976111f4565b826112b5565b6106dc576040517f08c379a00000000000000000000000000000000000000000000000000000000081526004016106d390612c04565b60405180910390fd5b6106e783838361134a565b505050565b606060006107206106fc84611643565b60405160200161070c9190612cac565b604051602081830303815290604052611711565b90506107616040518060400160405280600b81526020017f736565642072616e643a2000000000000000000000000000000000000000000081525082611744565b600980549050816107729190612cfd565b9050610796604051806060016040528060238152602001613b5e6023913982611744565b600981815481106107aa576107a9612d2e565b5b9060005260206000200180546107bf90612a3d565b80601f01602080910402602001604051908101604052809291908181526020018280546107eb90612a3d565b80156108385780601f1061080d57610100808354040283529160200191610838565b820191906000526020600020905b81548152906001019060200180831161081b57829003601f168201915b5050505050915050919050565b61086083838360405180602001604052806000815250610b42565b505050565b600080610871836117e0565b9050600073ffffffffffffffffffffffffffffffffffffffff168173ffffffffffffffffffffffffffffffffffffffff16036108e2576040517f08c379a00000000000000000000000000000000000000000000000000000000081526004016108d990612da9565b60405180910390fd5b80915050919050565b60008073ffffffffffffffffffffffffffffffffffffffff168273ffffffffffffffffffffffffffffffffffffffff160361095b576040517f08c379a000000000000000000000000000000000000000000000000000000000815260040161095290612e3b565b60405180910390fd5b600360008373ffffffffffffffffffffffffffffffffffffffff1673ffffffffffffffffffffffffffffffffffffffff168152602001908152602001600020549050919050565b6060600180546109b190612a3d565b80601f01602080910402602001604051908101604052809291908181526020018280546109dd90612a3d565b8015610a2a5780601f106109ff57610100808354040283529160200191610a2a565b820191906000526020600020905b815481529060010190602001808311610a0d57829003601f168201915b5050505050905090565b610a46610a3f6111f4565b838361181d565b5050565b60606000610a7e610a5a84611643565b604051602001610a6a9190612ea7565b604051602081830303815290604052611711565b9050600a8054905081610a919190612cfd565b9050600a8181548110610aa757610aa6612d2e565b5b906000526020600020018054610abc90612a3d565b80601f0160208091040260200160405190810160405280929190818152602001828054610ae890612a3d565b8015610b355780601f10610b0a57610100808354040283529160200191610b35565b820191906000526020600020905b815481529060010190602001808311610b1857829003601f168201915b5050505050915050919050565b610b53610b4d6111f4565b836112b5565b610b92576040517f08c379a0000000000000000000000000000000000000000000000000000000008152600401610b8990612c04565b60405180910390fd5b610b9e84848484611989565b50505050565b60606000610bd8610bb484611643565b604051602001610bc49190612f15565b604051602081830303815290604052611711565b9050600b8054905081610beb9190612cfd565b9050600b8181548110610c0157610c00612d2e565b5b906000526020600020018054610c1690612a3d565b80601f0160208091040260200160405190810160405280929190818152602001828054610c4290612a3d565b8015610c8f5780601f10610c6457610100808354040283529160200191610c8f565b820191906000526020600020905b815481529060010190602001808311610c7257829003601f168201915b5050505050915050919050565b6060610ca7826111a9565b6000600660008481526020019081526020016000208054610cc790612a3d565b80601f0160208091040260200160405190810160405280929190818152602001828054610cf390612a3d565b8015610d405780601f10610d1557610100808354040283529160200191610d40565b820191906000526020600020905b815481529060010190602001808311610d2357829003601f168201915b505050505090506000610d516119e5565b90506000815103610d66578192505050610da9565b600082511115610d9b578082604051602001610d83929190612f37565b60405160208183030381529060405292505050610da9565b610da4846119fc565b925050505b919050565b6000610dba6007611a64565b9050610dfa6040518060400160405280601681526020017f2a2a2a2a2a2a2a2a2a2a2a2a2a2a2a2a2a2a2a2a2a2a000000000000000000008152506110a6565b610e396040518060400160405280600b81526020017f6e65774974656d49643a2000000000000000000000000000000000000000000081525082611744565b600a8110610e475750610fbb565b610e68604051806060016040528060298152602001613bc1602991396110a6565b6000610e73826106ec565b90506000610e8083610a4a565b90506000610e8d84610ba4565b90506000838383604051602001610ea693929190612f5b565b60405160208183030381529060405290506000600882604051602001610ecd929190613070565b60405160208183030381529060405290506000610f1283610eed84611a72565b604051602001610efe9291906131f5565b604051602081830303815290604052611a72565b9050600081604051602001610f279190613286565b6040516020818303038152906040529050610f423389611c09565b610f4c8882611c27565b610f6f604051806060016040528060258152602001613b39602591398933611c94565b610f796007611d33565b7febb98688741ffa4c7589bf325de30cf7becb63de567842e1ccdb6cb949fdc82c3389604051610faa9291906132a8565b60405180910390a150505050505050505b565b600080610fca6007611a64565b905061100b6040518060400160405280601a81526020017f6765744d696e74436f756e7465722f6e65774d696e7449643b2000000000000081525082611744565b8091505090565b6000600560008473ffffffffffffffffffffffffffffffffffffffff1673ffffffffffffffffffffffffffffffffffffffff16815260200190815260200160002060008373ffffffffffffffffffffffffffffffffffffffff1673ffffffffffffffffffffffffffffffffffffffff16815260200190815260200160002060009054906101000a900460ff16905092915050565b61113c816040516024016110ba91906125b3565b6040516020818303038152906040527f41304fac000000000000000000000000000000000000000000000000000000007bffffffffffffffffffffffffffffffffffffffffffffffffffffffff19166020820180517bffffffffffffffffffffffffffffffffffffffffffffffffffffffff8381831617835250505050611d49565b50565b60007f01ffc9a7000000000000000000000000000000000000000000000000000000007bffffffffffffffffffffffffffffffffffffffffffffffffffffffff1916827bffffffffffffffffffffffffffffffffffffffffffffffffffffffff1916149050919050565b6111b281611d72565b6111f1576040517f08c379a00000000000000000000000000000000000000000000000000000000081526004016111e890612da9565b60405180910390fd5b50565b600033905090565b816004600083815260200190815260200160002060006101000a81548173ffffffffffffffffffffffffffffffffffffffff021916908373ffffffffffffffffffffffffffffffffffffffff160217905550808273ffffffffffffffffffffffffffffffffffffffff1661126f83610865565b73ffffffffffffffffffffffffffffffffffffffff167f8c5be1e5ebec7d5bd14f71427d1e84f3dd0314c0f7b2291e5b200ac8c7c3b92560405160405180910390a45050565b6000806112c183610865565b90508073ffffffffffffffffffffffffffffffffffffffff168473ffffffffffffffffffffffffffffffffffffffff16148061130357506113028185611012565b5b8061134157508373ffffffffffffffffffffffffffffffffffffffff166113298461052f565b73ffffffffffffffffffffffffffffffffffffffff16145b91505092915050565b8273ffffffffffffffffffffffffffffffffffffffff1661136a82610865565b73ffffffffffffffffffffffffffffffffffffffff16146113c0576040517f08c379a00000000000000000000000000000000000000000000000000000000081526004016113b790613343565b60405180910390fd5b600073ffffffffffffffffffffffffffffffffffffffff168273ffffffffffffffffffffffffffffffffffffffff160361142f576040517f08c379a0000000000000000000000000000000000000000000000000000000008152600401611426906133d5565b60405180910390fd5b61143c8383836001611db3565b8273ffffffffffffffffffffffffffffffffffffffff1661145c82610865565b73ffffffffffffffffffffffffffffffffffffffff16146114b2576040517f08c379a00000000000000000000000000000000000000000000000000000000081526004016114a990613343565b60405180910390fd5b6004600082815260200190815260200160002060006101000a81549073ffffffffffffffffffffffffffffffffffffffff02191690556001600360008573ffffffffffffffffffffffffffffffffffffffff1673ffffffffffffffffffffffffffffffffffffffff168152602001908152602001600020600082825403925050819055506001600360008473ffffffffffffffffffffffffffffffffffffffff1673ffffffffffffffffffffffffffffffffffffffff16815260200190815260200160002060008282540192505081905550816002600083815260200190815260200160002060006101000a81548173ffffffffffffffffffffffffffffffffffffffff021916908373ffffffffffffffffffffffffffffffffffffffff160217905550808273ffffffffffffffffffffffffffffffffffffffff168473ffffffffffffffffffffffffffffffffffffffff167fddf252ad1be2c89b69c2b068fc378daa952ba7f163c4a11628f55a4df523b3ef60405160405180910390a461163e8383836001611ed9565b505050565b60606000600161165284611edf565b01905060008167ffffffffffffffff81111561167157611670612820565b5b6040519080825280601f01601f1916602001820160405280156116a35781602001600182028036833780820191505090505b509050600082602001820190505b600115611706578080600190039150507f3031323334353637383961626364656600000000000000000000000000000000600a86061a8153600a85816116fa576116f9612cce565b5b049450600085036116b1575b819350505050919050565b60008160405160200161172491906133f5565b6040516020818303038152906040528051906020012060001c9050919050565b6117dc828260405160240161175a92919061340c565b6040516020818303038152906040527fb60e72cc000000000000000000000000000000000000000000000000000000007bffffffffffffffffffffffffffffffffffffffffffffffffffffffff19166020820180517bffffffffffffffffffffffffffffffffffffffffffffffffffffffff8381831617835250505050611d49565b5050565b60006002600083815260200190815260200160002060009054906101000a900473ffffffffffffffffffffffffffffffffffffffff169050919050565b8173ffffffffffffffffffffffffffffffffffffffff168373ffffffffffffffffffffffffffffffffffffffff160361188b576040517f08c379a000000000000000000000000000000000000000000000000000000000815260040161188290613488565b60405180910390fd5b80600560008573ffffffffffffffffffffffffffffffffffffffff1673ffffffffffffffffffffffffffffffffffffffff16815260200190815260200160002060008473ffffffffffffffffffffffffffffffffffffffff1673ffffffffffffffffffffffffffffffffffffffff16815260200190815260200160002060006101000a81548160ff0219169083151502179055508173ffffffffffffffffffffffffffffffffffffffff168373ffffffffffffffffffffffffffffffffffffffff167f17307eab39ab6107e8899845ad3d59bd9653f200f220920489ca2b5937696c318360405161197c9190612508565b60405180910390a3505050565b61199484848461134a565b6119a084848484612032565b6119df576040517f08c379a00000000000000000000000000000000000000000000000000000000081526004016119d69061351a565b60405180910390fd5b50505050565b606060405180602001604052806000815250905090565b6060611a07826111a9565b6000611a116119e5565b90506000815111611a315760405180602001604052806000815250611a5c565b80611a3b84611643565b604051602001611a4c929190612f37565b6040516020818303038152906040525b915050919050565b600081600001549050919050565b606060008251905060008103611a9a5760405180602001604052806000815250915050611c04565b60006003600283611aab9190613569565b611ab5919061359d565b6004611ac191906135ce565b90506000602082611ad29190613569565b67ffffffffffffffff811115611aeb57611aea612820565b5b6040519080825280601f01601f191660200182016040528015611b1d5781602001600182028036833780820191505090505b5090506000604051806060016040528060408152602001613b81604091399050600181016020830160005b86811015611bc15760038101905062ffffff818a015116603f8160121c168401518060081b905060ff603f83600c1c1686015116810190508060081b905060ff603f8360061c1686015116810190508060081b905060ff603f831686015116810190508060e01b90508084526004840193505050611b48565b506003860660018114611bdb5760028114611beb57611bf6565b613d3d60f01b6002830352611bf6565b603d60f81b60018303525b508484525050819450505050505b919050565b611c238282604051806020016040528060008152506121b9565b5050565b611c3082611d72565b611c6f576040517f08c379a0000000000000000000000000000000000000000000000000000000008152600401611c6690613682565b60405180910390fd5b80600660008481526020019081526020016000209081611c8f9190613839565b505050565b611d2e838383604051602401611cac9392919061390b565b6040516020818303038152906040527f1c7ec448000000000000000000000000000000000000000000000000000000007bffffffffffffffffffffffffffffffffffffffffffffffffffffffff19166020820180517bffffffffffffffffffffffffffffffffffffffffffffffffffffffff8381831617835250505050611d49565b505050565b6001816000016000828254019250508190555050565b60008151905060006a636f6e736f6c652e6c6f679050602083016000808483855afa5050505050565b60008073ffffffffffffffffffffffffffffffffffffffff16611d94836117e0565b73ffffffffffffffffffffffffffffffffffffffff1614159050919050565b6001811115611ed357600073ffffffffffffffffffffffffffffffffffffffff168473ffffffffffffffffffffffffffffffffffffffff1614611e475780600360008673ffffffffffffffffffffffffffffffffffffffff1673ffffffffffffffffffffffffffffffffffffffff1681526020019081526020016000206000828254611e3f9190613949565b925050819055505b600073ffffffffffffffffffffffffffffffffffffffff168373ffffffffffffffffffffffffffffffffffffffff1614611ed25780600360008573ffffffffffffffffffffffffffffffffffffffff1673ffffffffffffffffffffffffffffffffffffffff1681526020019081526020016000206000828254611eca9190613569565b925050819055505b5b50505050565b50505050565b600080600090507a184f03e93ff9f4daa797ed6e38ed64bf6a1f0100000000000000008310611f3d577a184f03e93ff9f4daa797ed6e38ed64bf6a1f0100000000000000008381611f3357611f32612cce565b5b0492506040810190505b6d04ee2d6d415b85acef81000000008310611f7a576d04ee2d6d415b85acef81000000008381611f7057611f6f612cce565b5b0492506020810190505b662386f26fc100008310611fa957662386f26fc100008381611f9f57611f9e612cce565b5b0492506010810190505b6305f5e1008310611fd2576305f5e1008381611fc857611fc7612cce565b5b0492506008810190505b6127108310611ff7576127108381611fed57611fec612cce565b5b0492506004810190505b6064831061201a57606483816120105761200f612cce565b5b0492506002810190505b600a8310612029576001810190505b80915050919050565b60006120538473ffffffffffffffffffffffffffffffffffffffff16612214565b156121ac578373ffffffffffffffffffffffffffffffffffffffff1663150b7a0261207c6111f4565b8786866040518563ffffffff1660e01b815260040161209e94939291906139d2565b6020604051808303816000875af19250505080156120da57506040513d601f19601f820116820180604052508101906120d79190613a33565b60015b61215c573d806000811461210a576040519150601f19603f3d011682016040523d82523d6000602084013e61210f565b606091505b506000815103612154576040517f08c379a000000000000000000000000000000000000000000000000000000000815260040161214b9061351a565b60405180910390fd5b805181602001fd5b63150b7a0260e01b7bffffffffffffffffffffffffffffffffffffffffffffffffffffffff1916817bffffffffffffffffffffffffffffffffffffffffffffffffffffffff1916149150506121b1565b600190505b949350505050565b6121c38383612237565b6121d06000848484612032565b61220f576040517f08c379a00000000000000000000000000000000000000000000000000000000081526004016122069061351a565b60405180910390fd5b505050565b6000808273ffffffffffffffffffffffffffffffffffffffff163b119050919050565b600073ffffffffffffffffffffffffffffffffffffffff168273ffffffffffffffffffffffffffffffffffffffff16036122a6576040517f08c379a000000000000000000000000000000000000000000000000000000000815260040161229d90613aac565b60405180910390fd5b6122af81611d72565b156122ef576040517f08c379a00000000000000000000000000000000000000000000000000000000081526004016122e690613b18565b60405180910390fd5b6122fd600083836001611db3565b61230681611d72565b15612346576040517f08c379a000000000000000000000000000000000000000000000000000000000815260040161233d90613b18565b60405180910390fd5b6001600360008473ffffffffffffffffffffffffffffffffffffffff1673ffffffffffffffffffffffffffffffffffffffff16815260200190815260200160002060008282540192505081905550816002600083815260200190815260200160002060006101000a81548173ffffffffffffffffffffffffffffffffffffffff021916908373ffffffffffffffffffffffffffffffffffffffff160217905550808273ffffffffffffffffffffffffffffffffffffffff16600073ffffffffffffffffffffffffffffffffffffffff167fddf252ad1be2c89b69c2b068fc378daa952ba7f163c4a11628f55a4df523b3ef60405160405180910390a4612450600083836001611ed9565b5050565b6000604051905090565b600080fd5b600080fd5b60007fffffffff0000000000000000000000000000000000000000000000000000000082169050919050565b61249d81612468565b81146124a857600080fd5b50565b6000813590506124ba81612494565b92915050565b6000602082840312156124d6576124d561245e565b5b60006124e4848285016124ab565b91505092915050565b60008115159050919050565b612502816124ed565b82525050565b600060208201905061251d60008301846124f9565b92915050565b600081519050919050565b600082825260208201905092915050565b60005b8381101561255d578082015181840152602081019050612542565b60008484015250505050565b6000601f19601f8301169050919050565b600061258582612523565b61258f818561252e565b935061259f81856020860161253f565b6125a881612569565b840191505092915050565b600060208201905081810360008301526125cd818461257a565b905092915050565b6000819050919050565b6125e8816125d5565b81146125f357600080fd5b50565b600081359050612605816125df565b92915050565b6000602082840312156126215761262061245e565b5b600061262f848285016125f6565b91505092915050565b600073ffffffffffffffffffffffffffffffffffffffff82169050919050565b600061266382612638565b9050919050565b61267381612658565b82525050565b600060208201905061268e600083018461266a565b92915050565b61269d81612658565b81146126a857600080fd5b50565b6000813590506126ba81612694565b92915050565b600080604083850312156126d7576126d661245e565b5b60006126e5858286016126ab565b92505060206126f6858286016125f6565b9150509250929050565b6000806000606084860312156127195761271861245e565b5b6000612727868287016126ab565b9350506020612738868287016126ab565b9250506040612749868287016125f6565b9150509250925092565b6000602082840312156127695761276861245e565b5b6000612777848285016126ab565b91505092915050565b612789816125d5565b82525050565b60006020820190506127a46000830184612780565b92915050565b6127b3816124ed565b81146127be57600080fd5b50565b6000813590506127d0816127aa565b92915050565b600080604083850312156127ed576127ec61245e565b5b60006127fb858286016126ab565b925050602061280c858286016127c1565b9150509250929050565b600080fd5b600080fd5b7f4e487b7100000000000000000000000000000000000000000000000000000000600052604160045260246000fd5b61285882612569565b810181811067ffffffffffffffff8211171561287757612876612820565b5b80604052505050565b600061288a612454565b9050612896828261284f565b919050565b600067ffffffffffffffff8211156128b6576128b5612820565b5b6128bf82612569565b9050602081019050919050565b82818337600083830152505050565b60006128ee6128e98461289b565b612880565b90508281526020810184848401111561290a5761290961281b565b5b6129158482856128cc565b509392505050565b600082601f83011261293257612931612816565b5b81356129428482602086016128db565b91505092915050565b600080600080608085870312156129655761296461245e565b5b6000612973878288016126ab565b9450506020612984878288016126ab565b9350506040612995878288016125f6565b925050606085013567ffffffffffffffff8111156129b6576129b5612463565b5b6129c28782880161291d565b91505092959194509250565b600080604083850312156129e5576129e461245e565b5b60006129f3858286016126ab565b9250506020612a04858286016126ab565b9150509250929050565b7f4e487b7100000000000000000000000000000000000000000000000000000000600052602260045260246000fd5b60006002820490506001821680612a5557607f821691505b602082108103612a6857612a67612a0e565b5b50919050565b7f4552433732313a20617070726f76616c20746f2063757272656e74206f776e6560008201527f7200000000000000000000000000000000000000000000000000000000000000602082015250565b6000612aca60218361252e565b9150612ad582612a6e565b604082019050919050565b60006020820190508181036000830152612af981612abd565b9050919050565b7f4552433732313a20617070726f76652063616c6c6572206973206e6f7420746f60008201527f6b656e206f776e6572206f7220617070726f76656420666f7220616c6c000000602082015250565b6000612b5c603d8361252e565b9150612b6782612b00565b604082019050919050565b60006020820190508181036000830152612b8b81612b4f565b9050919050565b7f4552433732313a2063616c6c6572206973206e6f7420746f6b656e206f776e6560008201527f72206f7220617070726f76656400000000000000000000000000000000000000602082015250565b6000612bee602d8361252e565b9150612bf982612b92565b604082019050919050565b60006020820190508181036000830152612c1d81612be1565b9050919050565b600081905092915050565b7f46495253545f574f524400000000000000000000000000000000000000000000600082015250565b6000612c65600a83612c24565b9150612c7082612c2f565b600a82019050919050565b6000612c8682612523565b612c908185612c24565b9350612ca081856020860161253f565b80840191505092915050565b6000612cb782612c58565b9150612cc38284612c7b565b915081905092915050565b7f4e487b7100000000000000000000000000000000000000000000000000000000600052601260045260246000fd5b6000612d08826125d5565b9150612d13836125d5565b925082612d2357612d22612cce565b5b828206905092915050565b7f4e487b7100000000000000000000000000000000000000000000000000000000600052603260045260246000fd5b7f4552433732313a20696e76616c696420746f6b656e2049440000000000000000600082015250565b6000612d9360188361252e565b9150612d9e82612d5d565b602082019050919050565b60006020820190508181036000830152612dc281612d86565b9050919050565b7f4552433732313a2061646472657373207a65726f206973206e6f74206120766160008201527f6c6964206f776e65720000000000000000000000000000000000000000000000602082015250565b6000612e2560298361252e565b9150612e3082612dc9565b604082019050919050565b60006020820190508181036000830152612e5481612e18565b9050919050565b7f5345434f4e445f574f5244000000000000000000000000000000000000000000600082015250565b6000612e91600b83612c24565b9150612e9c82612e5b565b600b82019050919050565b6000612eb282612e84565b9150612ebe8284612c7b565b915081905092915050565b7f54484952445f574f524400000000000000000000000000000000000000000000600082015250565b6000612eff600a83612c24565b9150612f0a82612ec9565b600a82019050919050565b6000612f2082612ef2565b9150612f2c8284612c7b565b915081905092915050565b6000612f438285612c7b565b9150612f4f8284612c7b565b91508190509392505050565b6000612f678286612c7b565b9150612f738285612c7b565b9150612f7f8284612c7b565b9150819050949350505050565b60008190508160005260206000209050919050565b60008154612fae81612a3d565b612fb88186612c24565b94506001821660008114612fd35760018114612fe85761301b565b60ff198316865281151582028601935061301b565b612ff185612f8c565b60005b8381101561301357815481890152600182019150602081019050612ff4565b838801955050505b50505092915050565b7f3c2f746578743e3c2f7376673e00000000000000000000000000000000000000600082015250565b600061305a600d83612c24565b915061306582613024565b600d82019050919050565b600061307c8285612fa1565b91506130888284612c7b565b91506130938261304d565b91508190509392505050565b7f7b226e616d65223a202200000000000000000000000000000000000000000000600082015250565b60006130d5600a83612c24565b91506130e08261309f565b600a82019050919050565b7f222c20226465736372697074696f6e223a20224120686967686c79206163636c60008201527f61696d6564204e465420636f6c6c656374696f6e206f6620737175617265732e60208201527f222c2022696d616765223a2022646174613a696d6167652f7376672b786d6c3b60408201527f6261736536342c00000000000000000000000000000000000000000000000000606082015250565b6000613193606783612c24565b915061319e826130eb565b606782019050919050565b7f227d000000000000000000000000000000000000000000000000000000000000600082015250565b60006131df600283612c24565b91506131ea826131a9565b600282019050919050565b6000613200826130c8565b915061320c8285612c7b565b915061321782613186565b91506132238284612c7b565b915061322e826131d2565b91508190509392505050565b7f646174613a6170706c69636174696f6e2f6a736f6e3b6261736536342c000000600082015250565b6000613270601d83612c24565b915061327b8261323a565b601d82019050919050565b600061329182613263565b915061329d8284612c7b565b915081905092915050565b60006040820190506132bd600083018561266a565b6132ca6020830184612780565b9392505050565b7f4552433732313a207472616e736665722066726f6d20696e636f72726563742060008201527f6f776e6572000000000000000000000000000000000000000000000000000000602082015250565b600061332d60258361252e565b9150613338826132d1565b604082019050919050565b6000602082019050818103600083015261335c81613320565b9050919050565b7f4552433732313a207472616e7366657220746f20746865207a65726f2061646460008201527f7265737300000000000000000000000000000000000000000000000000000000602082015250565b60006133bf60248361252e565b91506133ca82613363565b604082019050919050565b600060208201905081810360008301526133ee816133b2565b9050919050565b60006134018284612c7b565b915081905092915050565b60006040820190508181036000830152613426818561257a565b90506134356020830184612780565b9392505050565b7f4552433732313a20617070726f766520746f2063616c6c657200000000000000600082015250565b600061347260198361252e565b915061347d8261343c565b602082019050919050565b600060208201905081810360008301526134a181613465565b9050919050565b7f4552433732313a207472616e7366657220746f206e6f6e20455243373231526560008201527f63656976657220696d706c656d656e7465720000000000000000000000000000602082015250565b600061350460328361252e565b915061350f826134a8565b604082019050919050565b60006020820190508181036000830152613533816134f7565b9050919050565b7f4e487b7100000000000000000000000000000000000000000000000000000000600052601160045260246000fd5b6000613574826125d5565b915061357f836125d5565b92508282019050808211156135975761359661353a565b5b92915050565b60006135a8826125d5565b91506135b3836125d5565b9250826135c3576135c2612cce565b5b828204905092915050565b60006135d9826125d5565b91506135e4836125d5565b92508282026135f2816125d5565b915082820484148315176136095761360861353a565b5b5092915050565b7f45524337323155524953746f726167653a2055524920736574206f66206e6f6e60008201527f6578697374656e7420746f6b656e000000000000000000000000000000000000602082015250565b600061366c602e8361252e565b915061367782613610565b604082019050919050565b6000602082019050818103600083015261369b8161365f565b9050919050565b60006020601f8301049050919050565b600082821b905092915050565b6000600883026136ef7fffffffffffffffffffffffffffffffffffffffffffffffffffffffffffffffff826136b2565b6136f986836136b2565b95508019841693508086168417925050509392505050565b6000819050919050565b600061373661373161372c846125d5565b613711565b6125d5565b9050919050565b6000819050919050565b6137508361371b565b61376461375c8261373d565b8484546136bf565b825550505050565b600090565b61377961376c565b613784818484613747565b505050565b5b818110156137a85761379d600082613771565b60018101905061378a565b5050565b601f8211156137ed576137be81612f8c565b6137c7846136a2565b810160208510156137d6578190505b6137ea6137e2856136a2565b830182613789565b50505b505050565b600082821c905092915050565b6000613810600019846008026137f2565b1980831691505092915050565b600061382983836137ff565b9150826002028217905092915050565b61384282612523565b67ffffffffffffffff81111561385b5761385a612820565b5b6138658254612a3d565b6138708282856137ac565b600060209050601f8311600181146138a35760008415613891578287015190505b61389b858261381d565b865550613903565b601f1984166138b186612f8c565b60005b828110156138d9578489015182556001820191506020850194506020810190506138b4565b868310156138f657848901516138f2601f8916826137ff565b8355505b6001600288020188555050505b505050505050565b60006060820190508181036000830152613925818661257a565b90506139346020830185612780565b613941604083018461266a565b949350505050565b6000613954826125d5565b915061395f836125d5565b92508282039050818111156139775761397661353a565b5b92915050565b600081519050919050565b600082825260208201905092915050565b60006139a48261397d565b6139ae8185613988565b93506139be81856020860161253f565b6139c781612569565b840191505092915050565b60006080820190506139e7600083018761266a565b6139f4602083018661266a565b613a016040830185612780565b8181036060830152613a138184613999565b905095945050505050565b600081519050613a2d81612494565b92915050565b600060208284031215613a4957613a4861245e565b5b6000613a5784828501613a1e565b91505092915050565b7f4552433732313a206d696e7420746f20746865207a65726f2061646472657373600082015250565b6000613a9660208361252e565b9150613aa182613a60565b602082019050919050565b60006020820190508181036000830152613ac581613a89565b9050919050565b7f4552433732313a20746f6b656e20616c7265616479206d696e74656400000000600082015250565b6000613b02601c8361252e565b9150613b0d82613acc565b602082019050919050565b60006020820190508181036000830152613b3181613af5565b905091905056fe416e204e465420772f20494420257320686173206265656e206d696e74656420746f20257372616e646f6d6c792073656c656374656420666972737420776f72643a2072616e643d4142434445464748494a4b4c4d4e4f505152535455565758595a6162636465666768696a6b6c6d6e6f707172737475767778797a303132333435363738392b2f5374696c6c206c6f776572207468616e2074686520616c6c6f776564204d696e74206e756d62657273a264697066735822122023c28cba7a17dac29acc52a81622598b0c505cd0c5164ad1c9b080abb902e9a464736f6c634300081100333c73766720786d6c6e733d27687474703a2f2f7777772e77332e6f72672f323030302f73766727207072657365727665417370656374526174696f3d27784d696e594d696e206d656574272076696577426f783d273020302033353020333530273e3c7374796c653e2e62617365207b2066696c6c3a2077686974653b20666f6e742d66616d696c793a2073657269663b20666f6e742d73697a653a20323470783b207d3c2f7374796c653e3c726563742077696474683d273130302527206865696768743d2731303025272066696c6c3d27626c61636b27202f3e3c7465787420783d273530252720793d273530252720636c6173733d27626173652720646f6d696e616e742d626173656c696e653d276d6964646c652720746578742d616e63686f723d276d6964646c65273e",
  "linkReferences": {},
  "deployedLinkReferences": {}
}